:100000002EC0189518951895189518951895189547
:100010008FC0189518951895189518951895010280
:10002000040507080003050708000406080001008E
:100030000200050001020300030700050F1A27371D
:100040004A5B687886919DACC5E1FF051A405580F2
:10005000A9C0FFAFC0CBD7DDE2E8EEF4FF0011246A
:100060001FBECFE9CDBF80C028ED3EE0815020F01B
:10007000F9013197F1F7FACF0895109266001092C6
:100080006700109268000895982F99199F3010F416
:1000900021E201C023E22FBD99BD582E0895E82F1B
:1000A000F0E0E05AFF4FE081F0E0E65BFF4F849123
:1000B000EBCFCF93DF93D82FC62FDD2361F08FE0F6
:1000C000E3DF8C2FD1DF80E0DFDF8C2FCDDF8C2FC3
:1000D000CBDFD150F2CFDF91CF910895282FEEE101
:1000E000F0E080E090E03491311104C09F5F291767
:1000F00048F40895921306C0A82FB0E0A05ABF4F4D
:100100003C938F5F319630E0EB33F30761F708954E
:10011000811102C0862DE2CF833021F480E0DEDF42
:1001200085E00895813011F080E0089583E008951E
:10013000F894A3DF11BCCA2D81E08A0D8F71A82E1F
:10014000632D660F660F642990E04CD16FEF8C2F02
:1001500090E048D18FE390E03DD1662D861519F0EF
:100160008FE390E03FC10895B99A83E28FBD81E0AB
:1001700083BFA29A81E687B985EC86B9A89580E10C
:1001800081BD86E481BD789480916600909167007E
:10019000891349C090916800891345C08F5F80938F
:1001A00066008093670080936800853069F481E081
:1001B000840D482E843009F4412C22E0421202C002
:1001C00088248394312C49C08A30D8F080E181BDE5
:1001D00089E481BD68E088E06CDF88EC45DF81E080
:1001E000860D682E883009F4612C63E2862D61DF6C
:1001F0008FEF3ADFA89580E181BD86E481BD3DDFC8
:100200002CC0842D823041F083DF91E0930D392E94
:10021000981307C0312C05C0811003C08824839433
:100220001CC0812C1AC029DF8FE390E0D3D0682E48
:10023000C0E0D0E0CE01CED08F3F09F4C3C0AC2ED9
:10024000782E872D972D9370492E90E09595879560
:1002500095958795282F2F70322E842D59DF912C5C
:10026000DFEF10E0C0E0842D813089F5832D8130EF
:1002700071F407E08FEF08DF83E0F6DE80E004DF53
:1002800055245A948BE4F0DE0150A1F769C0823006
:1002900049F48FEFF9DE83E0E7DE80E0F5DE5524F8
:1002A0005A9440C031105CC0369A3699FECF95B151
:1002B00080E0E82FF0E0ED5AFF4FE491E91710F4E9
:1002C0008F5FF7CF68E2F5DE8FE0582E2BC08230CB
:1002D000C1F4882D882059F0830D382E8F3019F401
:1002E00088248A9404C0811102C088248394E32D59
:1002F000F0E0E55CFF4F8491C7DE882099F08FE144
:1003000014C0411019C0832DE32DF0E0E05AFF4FD7
:100310009081983079F41F3150F0D13808F0D250E4
:100320008D2FB2DE8AEFA0DE8AEF9EDE19C0B7DE27
:100330001F5FF8CFB4DEF6CF832DB1DE8AEF94DEF7
:100340008AEF92DE8FEFA0DE83E08EDE832DA7DEC4
:1003500085E28ADE8FEF98DE83E086DE832D9FDEE6
:10036000349B81CF85B18F3A50F5811028C0CF5F83
:10037000C23030F1852D893C40F4873940F4853610
:1003800040F4833340F083E007C08AE005C087E093
:1003900003C085E001C081E0890D982E581660F4F5
:1003A00019BC95B7977E906195BF85B7806285BF70
:1003B000889585B78F7D85BF19BC81E055DEC0E08B
:1003C000369A51CF2196C032D10509F033CF612C36
:1003D000712C37CFE199FECF1FBA8EBBE09A9927D7
:1003E0008DB30895262FE199FECF1CBA1FBA8EBB9C
:1003F0002DBB0FB6F894E29AE19A0FBE01960895CC
:00000001FF
