:100000002EC0189518951895189518951895189547
:100010007FC0189518951895189518951895010290
:100020000304060800030507080004060800010091
:100030000200050001020300030700050F1A27371D
:100040004A5B687886919DACC5E1FF051A405580F2
:10005000A9C0FFAFC0CBD7DDE2E8EEF4FF0011246A
:100060001FBECFE9CDBF78C02EE832E1815020F02D
:10007000F9013197F1F7FACF0895E6E6F0E0108242
:10008000118212820895982F991921E29F3008F069
:1000900023E22FBD99BD582E0895E82FF0E0E05AD5
:1000A000FF4FE081E150FF0BE55BFF4F8491EBCF09
:1000B000CF93DF93C82FD62FCC2361F08FE0E3DFFF
:1000C0008D2FD2DF80E0DFDF8D2FCEDF8D2FCCDFD5
:1000D000C150F2CFDF91CF910895282FEEE1F0E0EB
:1000E0004BE350E080E090E03491311104C09F5F19
:1000F000291748F40895291306C0A82FB0E0A05A84
:10010000BF4F3C938F5F31964E175F0769F7089595
:10011000F894B3DF11BCAEBA84E18CBBE19AE199EB
:10012000FECF81E08A0D8F71A82E932D990F990F24
:1001300094298EBB9DBB84E28CBBE19AE199FECFF2
:100140008FE390E049D1861531F08FE38EBB6DBA15
:1001500084E38CBBE19A0895B99A83E28FBD81E074
:1001600083BFA29A91E697B985EC86B9A89586E4F3
:1001700081BD7894809166002091670082138CC0C5
:1001800020916800821388C08F5F809366008093FF
:10019000670080936800853009F05AC081E0840DC3
:1001A000482E843009F4412C22E0421202C08824F7
:1001B0008394312C842D411090C0862D8EDF38120F
:1001C00001C0312C912CDFEF10E0C0E0842D813094
:1001D00009F0B1C0832D813009F08BC007E08FEFAB
:1001E00052DF82E041DF80E04EDF55245A948CE3F9
:1001F0003BDF0150A1F7349BE9CF85B18F3A28F559
:10020000811023C0C13009F0E5C0852D893C08F07C
:10021000D9C0873908F0D8C0853608F0D7C08333F5
:1002200008F0D6C0C90D9C2E5C1660F419BC85B7C9
:10023000877E806185BF85B7806285BF889585B7D9
:100240008F7D85BF19BC81E00FDFC0E0369ABECF3D
:100250008A30B8F091BD68E088E02ADF80EA04DFE8
:1002600081E0860D682E883009F4612C63E281E01C
:10027000860D1EDF8FEFF8DEA89586E481BDFDDEDA
:1002800099CF82E0481619F03394812C93CF8110D6
:10029000FCCF882483948ECFF0DE8FE390E09CD057
:1002A000682ED0E0C0E0CE0197D08F3F79F0AC2E21
:1002B000782E872D972D9370492E90E095958795F0
:1002C00095958795282F2F70322E74CF2196C032A6
:1002D000D10549F7612C712CECCF833021F480E0FB
:1002E000FCDE85E06CCF813011F483E068CF80E1E3
:1002F00066CF823061F48FEFC6DE82E0B5DE80E04B
:10030000C2DE55245A9488ECAFDE88EC28C0311048
:1003100072CF369A3699FECF95B1E82FF0E0ED5ABC
:10032000FF4FE491E91710F48F5FF7CF6EE1C0DE65
:100330008FE0582EE8CF8230C9F4882D882031F024
:10034000830D382E8F3069F488248A94E32DF0E0F1
:10035000E55CFF4F849197DE89E18820A1F284DE7D
:100360004ACF8111F3CF88248394F0CF411015C078
:10037000832DE32DF0E0E05AFF4F9081983059F43F
:100380001F3130F0D13808F0D2508D2F7CDEBBCF3A
:1003900084DE1F5FB8CF81DEB6CF832D7EDE88EC92
:1003A00063DE88EC61DE8FEF6EDE83E05DDE832D41
:1003B00074DE8EE159DE8FEF66DE83E055DE832D3D
:1003C0006CDE19CFCAE02ECFC7E02CCFC5E02ACF14
:1003D000C3E028CFC1E03ACFE199FECF8EBBE09ACF
:0603E00099278DB308957A
:00000001FF
